S016000042617474657279436861726765722E7372656377
S113000007C1000033C1000031C100002FC100004E
S11300102DC100002BC1000029C1000027C1000030
S113002025C1000023C1000021C100001FC1000040
S11300301DC100001BC1000019C1000017C1000050
S113004015C1000013C1000011C100000FC1000060
S113005086C500000BC1000009C1000077C2000082
S113006005C1000003C1000001C10000FFC0000081
S1130070FDC00000FBC00000F9C00000F7C0000094
S1130080F5C00000F3C00000F1C00000EFC00000A4
S1130090EDC00000EBC00000E9C00000E7C00000B4
S11300A0E5C00000E3C00000E1C00000DFC00000C4
S11300B0DDC00000DBC00000D9C00000D7C00000D4
S11300C0D5C00000D3C00000D1C00000CFC00000E4
S11300D0CDC00000CBC00000C9C00000C7C00000F4
S11300E0C5C00000A803AB039A039E03A403E20364
S11300F0AF03B303B903BD03C103C703CB03CF03EA
S1130100E203D503D903DD0300000A0B02090C0D39
S11301100E080703040100000000000000000000B6
S113012000000000000000000000000000000000CB
S11301300000000012111000000000000000000088
S113014000000000000000000000000000000102A8
S113015010202008081020401020408002010201D5
S1130160080402010102040810204080804020108D
S113017008040201800402018040201008040201E6
S1130180080402010102040810204080010204084E
S11301901020408005050505070508080808020227
S11301A002020A0A0808040404040101010101010D
S11301B001010303030303030303040707070C0CF0
S11301C00C0C0C0C0C0C02020202060606060606B7
S11301D006060B0B0B0B0B0B0B0B00002200250070
S11301E028002B002E00310034000201000005011C
S11301F008010B0100002100240027002A002D0023
S11302003000330001010000040107010A01A401C8
S113021011241FBECFEFD1E2DEBFCDBF00E00CBF83
S113022012E0A0E0B2E0ECE0FCE000E00BBF02C0B2
S113023007900D92AC30B107D9F722E0ACE0B2E000
S113024001C01D92A833B207E1F711E0C8E0D1E084
S113025000E005C021970109802FFE01CDD4C730ED
S1130260D10780E00807B1F782D0CEC4C9CE21E01F
S11302702093270280912502909126028A309105CD
S113028034F40196909326028093250208951092E7
S1130290260210922502209324020895E1E8F0E05A
S11302A080E180831092800081E08093350220E415
S11302B03CE9309337022093360230938700209331
S11302C0860091E1908327E331E030933402209358
S11302D0330280936F0020E042E060E18CE092E022
S11302E08DC380912402882349F180910002F1D1C9
S11302F0909329028093280241E060E08CE092E030
S113030064D36ED128EE33E040E050E053D4BA0118
S1130310A9012AE030E08CE092E0C1D040E060E046
S11303208CE092E052D360912802709129024AE055
S113033050E08CE092E004D11092240280912702D4
S11303408111109227020895CF92EF920F938EE1BC
S1130350C82E9FE1E92E00E221E242E263E28CE052
S113036092E0D9D30F91EF90CF90089508954FD193
S1130370FDDF94DFC0E0D0E0B4DF2097E9F30E9412
S11303800000FACFCF92DF92EF92FF920F931F9368
S1130390CF93DF936C017A018B01C0E0D0E0CE15DE
S11303A0DF0581F0D8016D918D01D601ED91FC91AD
S11303B00190F081E02DC6011995892B11F0219649
S11303C0EECF7E01C701DF91CF911F910F91FF9076
S11303D0EF90DF90CF9008956115710579F0FB01DE
S11303E001900020E9F73197AF01461B570BDC0160
S11303F0ED91FC910280F381E02D199480E090E06E
S11304000895DC01ED91FC910190F081E02D1994A7
S11304108F929F92AF92BF92EF92FF920F931F938E
S1130420CF93DF93CDB7DEB7A1970FB6F894DEBFB5
S11304300FBECDBF7C01FA01CB0119A2223008F412
S11304402AE08E010F5D1F4F822E912CA12CB12C1E
S1130450BF01A5019401AED3F901CA0101501109EC
S11304606A3010F4605D01C0695CD8016C93232B81
S1130470242B252B69F7B801C701AEDFA1960FB66F
S1130480F894DEBF0FBECDBFDF91CF911F910F91C6
S1130490FF90EF90BF90AF909F908F90089521159B
S11304A0310541F4DC01ED91FC910190F081E02DE6
S11304B0642F1994ADCFCF92DF92EF92FF920F93F6
S11304C01F93CF93DF932115310581F4DC01ED9166
S11304D0FC910190F081E02D642FDF91CF911F9169
S11304E00F91FF90EF90DF90CF9019942A3031054F
S11304F0F1F477FF1BC06A017B01EC016DE281DF3F
S11305008C0144275527BA014C195D096E097F09EE
S11305102AE0CE017DDF800F911FDF91CF911F91E3
S11305200F91FF90EF90DF90CF9008952AE0DF9134
S1130530CF911F910F91FF90EF90DF90CF9068CFF4
S11305409A01AB01770F660B770BB5CF1F920F9211
S11305500FB60F9211242F933F938F939F93AF93D2
S1130560BF9380912B0290912C02A0912D02B09107
S11305702E0230912A0223E0230F2D3720F4019616
S1130580A11DB11D05C026E8230F0296A11DB11DB2
S113059020932A0280932B0290932C02A0932D0285
S11305A0B0932E0280912F0290913002A0913102DB
S11305B0B09132020196A11DB11D80932F02909338
S11305C03002A0933102B0933202BF91AF919F9158
S11305D08F913F912F910F900FBE0F901F90189500
S11305E02FB7F89460912B0270912C0280912D0208
S11305F090912E022FBF08958230910538F0880F14
S1130600991F880F991F05970197F1F7089578941A
S113061084B5826084BD84B5816084BD85B5826003
S113062085BD85B5816085BDEEE6F0E080818160A1
S11306308083E1E8F0E010828081826080838081A1
S113064081608083E0E8F0E0808181608083E1EB79
S1130650F0E0808184608083E0EBF0E08081816061
S11306608083E1E9F0E08081826080838081816021
S11306708083E0E9F0E0808181608083E1EAF0E05A
S1130680808182608083808181608083E0EAF0E001
S1130690808181608083E1E2F1E0808182608083F7
S11306A0808181608083E0E2F1E0808181608083E9
S11306B0EAE7F0E0808184608083808182608083C7
S11306C08081816080838081806880831092C100F2
S11306D00895863308F0865390917B00282F287064
S11306E0977F922B90937B002091020290E4299FA4
S11306F0900111248770822B80937C0080917A0072
S1130700806480937A0080917A0086FDFCCF80918A
S113071078002091790090E0922B089590E0FC01FC
S11307203197E231F10508F04DC08827EE58FF4FAC
S11307308F4F62C2809180008F7703C080918000C8
S11307408F7D80938000089580918000877FF9CF0A
S113075084B58F7702C084B58F7D84BD0895809160
S1130760B0008F7703C08091B0008F7D8093B0007C
S11307700895809190008F7707C0809190008F7DBD
S113078003C080919000877F8093900008958091AA
S1130790A0008F7707C08091A0008F7D03C0809157
S11307A0A000877F8093A0000895809120018F7717
S11307B007C0809120018F7D03C080912001877F35
S11307C0809320010895CF93DF9390E0FC01E25BD6
S11307D0FE4F2491FC01EC56FE4F8491882361F175
S11307E090E0880F991FFC01EC50FE4FC591D49105
S11307F0FC01E652FE4FA591B491611109C09FB767
S1130800F8948881209582238883EC912E230BC051
S1130810623061F49FB7F8948881322F3095832336
S11308208883EC912E2B2C939FBF06C08FB7F8942E
S1130830E8812E2B28838FBFDF91CF9108951F93DA
S1130840CF93DF93282F30E0F901E85FFE4F8491C6
S1130850F901E25BFE4FD491F901EC56FE4FC491CD
S1130860CC23B9F0162F811159DFEC2FF0E0EE0FF5
S1130870FF1FE652FE4FA591B4919FB7F894111152
S113088004C08C91D095D82302C0EC91DE2BDC936C
S11308909FBFDF91CF911F910895CF93DF93EC0118
S11308A060E08E81CCDF81E090E0A6DE61E08E81A5
S11308B0C6DF81E090E0A0DE60E08E81C0DF84E6E8
S11308C090E0DF91CF9198CECF92DF92EF92FF929A
S11308D00F931F93CF93DF936C017C0187E0E80EA5
S11308E0F11CC0E0D0E0062F10E0B8010C2E02C0CD
S11308F0759567950A94E2F76170F70181917F011C
S11309009EDF2196C430D10581F7C601DF91CF91D6
S11309101F910F91FF90EF90DF90CF90BECFCF92B9
S1130920DF92EF92FF920F931F93CF93DF936C01AB
S11309307C0187E0E80EF11CC0E0D0E0062F10E057
S1130940B8010C2E02C0759567950A94E2F76170A0
S1130950F70181917F0173DF2196C830D10581F7BA
S1130960C601DF91CF911F910F91FF90EF90DF901F
S1130970CF9093CF1F93CF93DF93EC01162F642F67
S11309808C815DDF8D818F3F11F060E058DF8F85B2
S1130990612F84FF05C0CE01DF91CF911F91BFCF9E
S11309A070E084E0759567958A95E1F7CE018CDF58
S11309B0612FCE01DF91CF911F9186CF40E0DACF36
S11309C061E0FCDF80ED97E017CEFC01443008F0D5
S11309D043E08389481710F04FEF480FDF01A40F5D
S11309E0B11D54969C91690F6068CF01E7CFFC015B
S11309F06089262F2460208B6C60E0CFEF92FF92F9
S1130A000F931F93CF93DF93EC01423018F08F853F
S1130A1088608F874B8B1C8A80E48D8B6E8B70E093
S1130A20605C7F4F6F8B222329F0413019F48F854E
S1130A3084608F8761E08C81C6DE8D818F3F11F0E9
S1130A4061E0C1DE61E08E81BEDE7E0187E0E80EFA
S1130A50F11C00E010E08F8584FD03C084E090E089
S1130A6002C088E090E00817190744F461E0F70138
S1130A7081917F01A8DE0F5F1F4FEDCF80E593ECDE
S1130A80BBDD60E08C81DBDE60E08E81D8DE8D81B1
S1130A908F3F11F060E0D3DE6F8564FD16C063E024
S1130AA0CE0112DF84E991E1A7DD63E0CE010CDF22
S1130AB084E991E1A1DD63E0CE0106DF86E990E0FF
S1130AC09BDD62E0CE0100DF11C06062CE0176DF03
S1130AD084E991E191DD6F856062CE016FDF86E983
S1130AE090E08ADD6F856062CE0168DF6F856062A9
S1130AF0CE0164DF84E0888BCE0179DFCE0160DF34
S1130B0082E0898B66E0CE01DF91CF911F910F9136
S1130B10FF90EF9053CFCF92EF920F93FC0113828B
S1130B20128287E092E09183808364838FEF8583D0
S1130B30468327830087E186C2861386148615863A
S1130B401686178620E041E060E1CF010F91EF9017
S1130B50CF9054CF41E00EDF81E090E008951F92E2
S1130B600F920FB60F9211240BB60F922F933F934F
S1130B704F935F936F937F938F939F93AF93BF93A1
S1130B80EF93FF93E0913302F09134021995FF91B2
S1130B90EF91BF91AF919F918F917F916F915F91F1
S1130BA04F913F912F910F900BBE0F900FBE0F905E
S1130BB01F901895A1E21A2EAA1BBB1BFD010DC0A4
S1130BC0AA1FBB1FEE1FFF1FA217B307E407F507F9
S1130BD020F0A21BB30BE40BF50B661F771F881FD5
S1130BE0991F1A9469F760957095809590959B016B
S1130BF0AC01BD01CF010895EE0FFF1F881F8BBF0D
S10F0C000790F691E02D1994F894FFCFB2
S10F0C0C36000100000000AA05C201002F
S9030000FC
