S016000042617474657279436861726765722E7372656377
S113000014C1000043C1000041C100003FC1000011
S11300103DC100003BC1000039C1000037C10000F0
S113002035C1000033C1000031C100002FC1000000
S11300302DC100002BC1000029C1000027C1000010
S113004025C1000023C1000021C100001FC1000020
S11300500C94A80D1BC1000019C100000C94800A67
S113006015C1000013C1000011C100000FC1000040
S11300700DC100000BC1000009C1000007C1000050
S113008005C1000003C1000001C10000FFC0000061
S1130090FDC00000FBC00000F9C00000F7C0000074
S11300A0F5C00000F3C00000F1C00000EFC0000084
S11300B0EDC00000EBC00000E9C00000E7C0000094
S11300C0E5C00000E3C00000E1C00000DFC00000A4
S11300D0DDC00000DBC00000D9C00000D7C00000B4
S11300E0D5C00000790B7C0B6B0B6F0B750BB30B3E
S11300F0800B840B8A0B8E0B920B980B9C0BA00B22
S1130100B30BA60BAA0BAE0B00000A0B02090C0DD5
S11301100E080703040100000000000000000000B6
S113012000000000000000000000000000000000CB
S11301300000000012111000000000000000000088
S113014000000000000000000000000000000102A8
S113015010202008081020401020408002010201D5
S1130160080402010102040810204080804020108D
S113017008040201800402018040201008040201E6
S1130180080402010102040810204080010204084E
S11301901020408005050505070508080808020227
S11301A002020A0A0808040404040101010101010D
S11301B001010303030303030303040707070C0CF0
S11301C00C0C0C0C0C0C02020202060606060606B7
S11301D006060B0B0B0B0B0B0B0B00002000230074
S11301E0260029002C002F0032000001000003012A
S11301F00601090100002200250028002B002E0022
S11302003100340002010000050108010B01000067
S11302102100240027002A002D00300033000101B2
S11302200000040107010A01A90611241FBECFEF33
S1130230D1E2DEBFCDBF00E00CBF12E0A0E0B2E02F
S1130240E4E3F2E200E00BBF02C007900D92AE3887
S1130250B107D9F723E0AEE8B2E001C01D92A133A3
S1130260B207E1F711E0C5E1D1E000E006C0219753
S11302700109802FFE010E94F50DC431D10780E0F1
S11302800807A9F70E94340A0C941811B9CE21E08A
S11302902093D3028091D1029091D20284369105A9
S11302A034F401969093D2028093D10206C0109246
S11302B0D2021092D1022093D0028091CE0290916A
S11302C0CF02883C910534F401969093CF02809339
S11302D0CE0207C01092CF021092CE0281E080932A
S11302E0CD0253C5462F50E06AE070E00C94011132
S11302F0462F50E06AE070E00C94F11080E18093A6
S113030081001092800081E080932E0320E43CE978
S11303103093300320932F0330938700209386007B
S113032091E19093810027E431E030932D032093F1
S11303302C0380936F0060E08EE00E94B40B60E0B9
S11303408FE00E94B40B60E080E10E94B40B61E096
S11303508EE00E94F00B61E08FE00E94F00B61E000
S113036080E10E94F00B61E087E00E94B40B61E041
S113037088E00E94B40B61E089E00E94B40B61E064
S11303808AE00E94B40B61E08BE00E94B40B61E050
S11303908CE00E94B40B61E08DE00E94B40B60E03D
S11303A08DE00E94F00B60E089E30E94B40B61E0F1
S11303B089E30E94F00B60E08DE20E94B40B61E0DF
S11303C08DE20E94F00B61E084E00E94B40B60E0D7
S11303D084E00E94F00B61E08BE00E94B40B60E0CB
S11303E08BE00E94F00B61E082E00E94B40B61E0BC
S11303F083E00E94B40B61E084E00E94B40B61E0EE
S113040085E00E94B40B83E00E94370B20E042E0B9
S113041060E181EA92E00E94F70C40E060E081EA4A
S113042092E00E94DE0C6EE072E081EA92E00E94AB
S11304307F0A68E089E992E05BDF809199029091FC
S11304409A028A3A9A4AD0F080E890E090939A020D
S11304508093990289E790E090939C0280939B0299
S11304608AEA92E090939E0280939D029093A00268
S113047080939F0268E089E992E034CF08951F9346
S1130480CF93DF93182FEB010E941E0C892BE1F40C
S113049082E090E00E94CA0A8091970290919802AB
S11304A001969093980280939702812F0E941E0CCC
S11304B020919702309198022C173D073CF3D0937A
S11304C09802C0939702E2CF80919702909198028C
S11304D010929802109297028C179D071CF087E3E4
S11304E090E002C08EE290E0DF91CF911F910895D9
S11304F0CF92DF92EF92FF920F931F93CF93DF93EC
S1130500EC018B01FB0101900020E9F73197E61B18
S1130510F70BE093960281EA92E00E94D90C8AE1FB
S1130520E82E82E0F82E9EE8C92E92E0D92E41E012
S113053060E081EA92E00E94DE0C89818F938881D9
S11305408F93FF92EF92DF92CF920E94160EB80122
S113055081EA92E0D4D76EE872E081EA92E0CFD7E4
S11305600AD40F900F900F900F900F900F90882344
S1130570F1F2823031F48881998197FD0FC00196A0
S113058008C0833049F4888199818230910530F024
S113059001979983888302C0813051F02FEF83EC57
S11305A099E0215080409040E1F700C00000BFCFA7
S11305B081EA92E00E94D90C2FEF83ED90E3215061
S11305C080409040E1F700C0000080E090E0DF91BF
S11305D0CF911F910F91FF90EF90DF90CF900895EE
S11305E04F925F926F927F928F929F92AF92BF923F
S11305F0CF92DF92EF92FF920F931F93CF93DF93EB
S113060000D01F92CDB7DEB78091D302882309F4BE
S1130610F0C0809106020E943A0B092E000CAA0B2E
S1130620BB0B8093160390931703A0931803B09306
S11306301903809104020E943A0B092E000CAA0BA4
S1130640BB0B8093120390931303A0931403B093F2
S11306501503809102020E943A0B9C01990F440BEE
S1130660550B29833A834B835C8320930E03309389
S11306700F0340931003509311034090F2025090E3
S1130680F3026090F4027090F5026091EE027091B2
S1130690EF028091F0029091F1028090EA02909032
S11306A0EB02A090EC02B090ED02C090E602D09074
S11306B0E702E090E802F090E9023AE043165104C0
S11306C06104710408F046C00091160310911703E9
S11306D02091180330911903060F171F281F391F83
S11306E00093EE021093EF022093F0023093F10294
S11306F000911203109113032091140330911503F8
S1130700800E911EA21EB31E8092EA029092EB020A
S1130710A092EC02B092ED0289819A81AB81BC81F6
S11307208C0D9D1DAE1DBF1D8093E6029093E702C4
S1130730A093E802B093E902D301C2010196A11D7E
S1130740B11D8093F2029093F302A093F402B0934C
S1130750F5024DC02AE0422E512C612C712CA301CC
S113076092010E94D30D20930A0330930B0340930C
S11307700C0350930D03C501B401A30192010E941F
S1130780D30D20930603309307034093080350933B
S11307900903C701B601A30192010E94D30D20935E
S11307A00203309303034093040350930503109210
S11307B0EE021092EF021092F0021092F1021092E7
S11307C0EA021092EB021092EC021092ED021092E7
S11307D0E6021092E7021092E8021092E9021092E7
S11307E0F2021092F3021092F4021092F5021092A7
S11307F0D3028091D002882309F4F8C020910A031F
S113080030910B0340910C0350910D03A4E6B0E02A
S11308100E94FD0D20919F023091A00240E050E023
S11308200E94D30D2093FE023093FF0240930003F5
S1130830509301032091060330910703409108036C
S113084050910903A4E6B0E00E94FD0D20919D02A1
S113085030919E0240E050E00E94D30D2093FA02B2
S11308603093FB024093FC025093FD02209102035B
S1130870309103034091040350910503A4E6B0E0D2
S11308800E94FD0D24E630E040E050E00E94D30DCC
S11308902093F6023093F7024093F8025093F90242
S11308A040E060E081EA92E00E94DE0C62E872E0DF
S11308B081EA92E024D6809101038F938091000312
S11308C08F938091FF028F938091FE028F930FE1AB
S11308D012E01F930F9349EB52E05F934F930E94F2
S11308E0160E69EB72E081EA92E009D664E272E0E6
S11308F081EA92E004D68091FD028F938091FC02FC
S11309008F938091FB028F938091FA028F931F93B0
S11309100F93A9EBB2E0BF93AF930E94160E69EB5D
S113092072E081EA92E0EBD50FB6F894DEBF0FBE19
S1130930CDBF8091E502882319F067E272E002C01E
S11309406CE272E081EA92E0DAD541E060E081EAAB
S113095092E00E94DE0C61E372E081EA92E0CFD57E
S11309608091F9028F938091F8028F938091F7021E
S11309708F938091F6028F938FE192E09F938F93F0
S113098089EB92E09F938F930E94160E69EB72E0BD
S113099081EA92E0B4D50FB6F894DEBF0FBECDBFA6
S11309A08091E002882319F064E372E01AC0809118
S11309B00002909101028631910571F02CF4459763
S11309C099F46FE372E00DC08731910541F04897C7
S11309D059F46DE572E005C069E472E002C063E5B4
S11309E072E081EA92E08BD51092D0028091CD0220
S11309F0882309F43AC14091FA025091FB026091B4
S1130A00FC027091FD024536510561057105E0F463
S1130A101092D9021092D8021092D7021092D602E4
S1130A201092D5021092D4028091DA029091DB02E6
S1130A308530910530F401969093DB028093DA02BD
S1130A4068C085E190E061C080919B0290919C0216
S1130A50A0E0B0E0481759076A077B07E0F410925A
S1130A60DB021092DA021092D7021092D602109290
S1130A70D5021092D4028091D8029091D902843088
S1130A80910530F401969093D9028093D80241C025
S1130A9086E190E03AC08091990290919A02A0E098
S1130AA0B0E01092DB021092DA021092D902109296
S1130AB0D802481759076A077B07A0F41092D50299
S1130AC01092D4028091D6029091D702843091057D
S1130AD030F401969093D7028093D6021AC087E12E
S1130AE090E013C01092D7021092D6028091D402E3
S1130AF09091D5028430910530F401969093D502FB
S1130B008093D40206C088E190E090930102809320
S1130B1000028091E00281113EC080910002909118
S1130B2001028631910589F01CF4459771F024C0C7
S1130B3087319105A9F04897F9F460E082E050D636
S1130B4060E083E04DD660E012C061E082E048D608
S1130B5061E083E045D661E08DE042D661E00AC001
S1130B6061E082E03DD660E083E03AD661E08DE06A
S1130B7037D660E08CE034D68091E502882329F0F2
S1130B8061E084E02DD661E004C060E084E028D612
S1130B9060E08BE00BC060E082E022D660E083E09E
S1130BA01FD660E08DE01CD660E08CE019D689E3A6
S1130BB045D64091DC025091DD026091DE027091D5
S1130BC0DF02019771F4453051056105710528F480
S1130BD04F5F5F4F6F4F7F4F0DC081E08093E00206
S1130BE014C0411551056105710569F04150510961
S1130BF0610971094093DC025093DD026093DE02C7
S1130C007093DF0202C01092E0028DE217D6409189
S1130C10E1025091E2026091E3027091E402892BB7
S1130C2071F4453051056105710528F44F5F5F4F3C
S1130C306F4F7F4F0DC081E08093E50214C04115D2
S1130C4051056105710569F0415051096109710946
S1130C504093E1025093E2026093E3027093E40252
S1130C6002C01092E5021092CD0268E270E08EE0BC
S1130C7090E005DCC79709F057C081EA92E099D665
S1130C809FEFAFE0B7E29150A040B040E1F700C061
S1130C90000067E672E089E992E02ADC81EA92E0EA
S1130CA088D62FEF3FE047E2215030404040E1F743
S1130CB000C0000061E772E08BE992E019DC81EA90
S1130CC092E077D65FEF8FE097E2515080409040FA
S1130CD0E1F700C000006AE772E08FE992E008DC07
S1130CE081EA92E066D6AFEFBFE027E2A150B040C0
S1130CF02040E1F700C0000068E089E992E00F902D
S1130D000F900F900F90DF91CF911F910F91FF9053
S1130D10EF90DF90CF90BF90AF909F908F907F9097
S1130D206F905F904F90DECA0F900F900F900F90CE
S1130D30DF91CF911F910F91FF90EF90DF90CF90B3
S1130D40BF90AF909F908F907F906F905F904F90E7
S1130D500895CF92EF920F938EE1C82E9FE1E92E72
S1130D6000E221E242E263E281EA92E0CDD60F9111
S1130D70EF90CF90089580912003882329F081E09B
S1130D8080931C03809120030895CF93C0910C029B
S1130D90C13009F0CEC08EE051D5892BA1F5C093A6
S1130DA01D0380911E03813051F010922203109292
S1130DB021031092200310921F03C0931E038091FD
S1130DC0210390912203019690932203809321039F
S1130DD020910802309109022817390750F481E064
S1130DE0809320032E5F3F4F3093220320932103EF
S1130DF06BC220910A0230910B022817390708F0C0
S1130E0005C381E001C38FE019D5892B69F5C0932F
S1130E101D0380911E03823059F010922203109218
S1130E2021031092200310921F0382E080931E037B
S1130E308091210390912203019690932203809341
S1130E40210320910802309109022817390710F470
S1130E5082E031C220910A0230910B02281739072F
S1130E6008F0D4C282E0D0C280E1E8D4892B69F5CD
S1130E70C0931D0380911E03833059F01092220306
S1130E80109221031092200310921F0383E0809399
S1130E901E038091210390912203019690932203D3
S1130EA08093210320910802309109022817390701
S1130EB010F483E000C220910A0230910B0228173B
S1130EC0390708F0A3C283E09FC281E1B7D4892B1C
S1130ED069F5C0931D0380911E03843059F010926C
S1130EE02203109221031092200310921F0384E026
S1130EF080931E0380912103909122030196909385
S1130F0022038093210320910802309109022817BB
S1130F10390710F484E0CFC120910A0230910B020A
S1130F202817390708F072C284E06EC2C0930C021D
S1130F306DC2C23009F0C9C08EE080D4892B71F52E
S1130F4081E080931D0380911E03853059F0109237
S1130F502203109221031092200310921F0385E0B4
S1130F6080931E0380912103909122030196909314
S1130F70220380932103209108023091090228174B
S1130F80390710F485E097C120910A0230910B02D1
S1130F902817390708F03AC285E036C28FE04ED4EC
S1130FA0892B71F581E080931D0380911E038630A7
S1130FB059F01092220310922103109220031092F0
S1130FC01F0386E080931E038091210390912203E6
S1130FD0019690932203809321032091080230917B
S1130FE009022817390710F486E065C120910A0226
S1130FF030910B022817390708F008C286E004C2B2
S113100080E11CD4892B71F581E080931D038091CC
S11310101E03873059F0109222031092210310927C
S1131020200310921F0387E080931E038091210305
S1131030909122030196909322038093210320919F
S11310400802309109022817390710F487E033C1E8
S113105020910A0230910B022817390708F0D6C1F3
S113106087E0D2C181E1EAD3892B09F0CFC181E0C5
S113107080931D0380911E03883059F0109222033F
S1131080109221031092200310921F0388E0809392
S11310901E038091210390912203019690932203D1
S11310A080932103209108023091090228173907FF
S11310B010F488E000C120910A0230910B02281735
S11310C0390708F0A3C188E09FC1C33009F0C9C043
S11310D08EE0B4D3892B71F581E080931D03809158
S11310E01E03893059F010922203109221031092AA
S11310F0200310921F0389E080931E038091210333
S113110090912203019690932203809321032091CE
S11311100802309109022817390710F489E0CBC07E
S113112020910A0230910B022817390708F06EC18A
S113113089E06AC18FE082D3892B71F581E08093C5
S11311401D0380911E038A3059F0109222031092DD
S113115021031092200310921F038AE080931E0340
S1131160809121039091220301969093220380930E
S1131170210320910802309109022817390710F43D
S11311808AE099C020910A0230910B02281739078E
S113119008F03CC18AE038C180E150D3892B71F555
S11311A081E080931D0380911E038B3059F01092CF
S11311B02203109221031092200310921F038BE04C
S11311C080931E03809121039091220301969093B2
S11311D022038093210320910802309109022817E9
S11311E0390710F48BE067C020910A0230910B029A
S11311F02817390708F00AC18BE006C181E11ED324
S1131200892B09F003C181E080931D0380911E03A3
S11312108C3059F010922203109221031092200373
S113122010921F038CE080931E0380912103909100
S113123022030196909322038093210320910802B4
S1131240309109022817390710F48CE034C020913A
S11312500A0230910B022817390708F0D7C08CE036
S1131260D3C0C43009F0D2C08EE0E8D2892BC9F5CE
S113127081E080931D0380911E038D3059F01092FC
S11312802203109221031092200310921F038DE079
S113129080931E03809121039091220301969093E1
S11312A02203809321032091080230910902281718
S11312B0390768F48DE0809320032E5F3F4F30930D
S11312C022032093210381E080931F039FC0209178
S11312D00A0230910B022817390708F097C08DE0F5
S11312E093C08FE0ABD2892B71F581E080931D030D
S11312F080911E038E3059F0109222031092210324
S11313001092200310921F038EE080931E0380919D
S11313102103909122030196909322038093210349
S113132020910802309109022817390710F48EE041
S1131330C2CF20910A0230910B022817390708F016
S113134065C08EE061C080E179D2892B69F581E0C6
S113135080931D0380911E038F3059F01092220355
S1131360109221031092200310921F038FE08093A8
S11313701E038091210390912203019690932203EE
S1131380809321032091080230910902281739071C
S113139010F48FE090CF20910A0230910B022817AD
S11313A03907A0F58FE030C081E148D2892B71F56F
S11313B081E080931D0380911E03803159F01092C7
S11313C02203109221031092200310921F0380E144
S11313D080931E03809121039091220301969093A0
S11313E022038093210320910802309109022817D7
S11313F0390710F480E15FCF20910A0230910B028B
S11314002817390718F480E18093200380911C0386
S11314108130B9F41092200380911A0390911B0338
S1131420019690931B0380931A0380911A03909161
S11314301B03069730F010921B0310921A031092AC
S11314401C0380911D03813051F0109222031092ED
S113145021031092200310921F0310921E03109276
S11314601D03CF9108950895A0D0FDDF0E947E0151
S1131470C0E0D0E0B5D82097E9F30E940000FACF8D
S1131480CF92DF92EF92FF920F931F93CF93DF934C
S11314906C017A018B01C0E0D0E0CE15DF0581F04C
S11314A0D8016D918D01D601ED91FC910190F081EF
S11314B0E02DC6011995892B11F02196EECF7E01FE
S11314C0C701DF91CF911F910F91FF90EF90DF90B3
S11314D0CF9008956115710579F0FB01019000200A
S11314E0E9F73197AF01461B570BDC01ED91FC91F5
S11314F00280F381E02D199480E090E00895EACF12
S11315001F920F920FB60F9211242F933F938F9334
S11315109F93AF93BF938091240390912503A0914F
S11315202603B09127033091230323E0230F2D37A3
S113153020F40196A11DB11D05C026E8230F0296D3
S1131540A11DB11D209323038093240390932503AD
S1131550A0932603B0932703809128039091290335
S1131560A0912A03B0912B030196A11DB11D809374
S1131570280390932903A0932A03B0932B03BF91CC
S1131580AF919F918F913F912F910F900FBE0F902C
S11315901F9018958230910538F0880F991F880F95
S11315A0991F05970197F1F70895789484B582609F
S11315B084BD84B5816084BD85B5826085BD85B5F3
S11315C0816085BDEEE6F0E0808181608083E1E8A2
S11315D0F0E01082808182608083808181608083DA
S11315E0E0E8F0E0808181608083E1EBF0E08081DD
S11315F084608083E0EBF0E0808181608083E1E9B6
S1131600F0E0808182608083808181608083E0E972
S1131610F0E0808181608083E1EAF0E08081826093
S11316208083808181608083E0EAF0E08081816052
S11316308083E1E2F1E08081826080838081816047
S11316408083E0E2F1E0808181608083EAE7F0E07A
S113165080818460808380818260808380818160D6
S113166080838081806880831092C1000895809374
S11316700D020895863308F0865390917B00282F3D
S11316802870977F922B90937B0020910D0290E419
S1131690299F900111248770822B80937C00809174
S11316A07A00806480937A0080917A0086FDFCCF72
S11316B0809178002091790090E0922B089590E039
S11316C0FC013197E231F10508F04DC08827EE584E
S11316D0FF4F8F4F8AC2809180008F7703C0809123
S11316E080008F7D80938000089580918000877FA3
S11316F0F9CF84B58F7702C084B58F7D84BD0895FA
S11317008091B0008F7703C08091B0008F7D80936B
S1131710B0000895809190008F7707C08091900069
S11317208F7D03C080919000877F809390000895FF
S11317308091A0008F7707C08091A0008F7D03C0A7
S11317408091A000877F8093A0000895809120015C
S11317508F7707C0809120018F7D03C08091200185
S1131760877F809320010895CF93DF9390E0FC015D
S1131770E25BFE4F2491FC01EC56FE4F84918823DA
S113178061F190E0880F991FFC01E25FFD4FC59164
S1131790D491FC01EC50FE4FA591B491611109C0A4
S11317A09FB7F8948881209582238883EC912E2317
S11317B00BC0623061F49FB7F8948881322F309562
S11317C083238883EC912E2B2C939FBF06C08FB765
S11317D0F894E8812E2B28838FBFDF91CF91089551
S11317E01F93CF93DF93282F30E0F901E85FFE4F7A
S11317F08491F901E25BFE4FD491F901EC56FE4F5E
S1131800C491CC23B9F0162F811159DFEC2FF0E0ED
S1131810EE0FFF1FEC50FE4FA591B4919FB7F894C3
S1131820111104C08C91D095D82302C0EC91DE2B09
S1131830DC939FBFDF91CF911F910895CF93DF93E6
S1131840282F30E0F901E85FFE4F8491F901E25B53
S1131850FE4FD491F901EC56FE4FC491CC2389F08C
S113186081112DDFEC2FF0E0EE0FFF1FE652FE4F4B
S1131870A591B491EC91ED2381E090E021F480E016
S113188002C080E090E0DF91CF910895CF93DF9381
S1131890EC0160E08E81A4DF81E090E07BDE61E01A
S11318A08E819EDF81E090E075DE60E08E8198DFBE
S11318B084E690E0DF91CF916DCECF92DF92EF92EC
S11318C0FF920F931F93CF93DF936C017C0187E00A
S11318D0E80EF11CC0E0D0E0062F10E0B8010C2E99
S11318E002C0759567950A94E2F76170F7018191DA
S11318F07F0176DF2196C430D10581F7C601DF91DF
S1131900CF911F910F91FF90EF90DF90CF90BECFBA
S1131910CF92DF92EF92FF920F931F93CF93DF93B7
S11319206C017C0187E0E80EF11CC0E0D0E0062FDA
S113193010E0B8010C2E02C0759567950A94E2F781
S11319406170F70181917F014BDF2196C830D10589
S113195081F7C601DF91CF911F910F91FF90EF9016
S1131960DF90CF9093CF1F93CF93DF93EC01162F8B
S1131970642F8C8135DF8D818F3F11F060E030DF83
S11319808F85612F84FF05C0CE01DF91CF911F9118
S1131990BFCF70E084E0759567958A95E1F7CE0135
S11319A08CDF612FCE01DF91CF911F9186CF40E074
S11319B0DACF61E0FCDF80ED97E0ECCDFC01443050
S11319C008F043E08389481710F04FEF480FDF0118
S11319D0A40FB11D54969C91690F6068CF01E7CFA5
S11319E0FC016089262F2460208B6C60E0CFEF928D
S11319F0FF920F931F93CF93DF93EC01423018F0C3
S1131A008F8588608F874B8B1C8A80E48D8B6E8BCF
S1131A1070E0605C7F4F6F8B222329F0413019F412
S1131A208F8584608F8761E08C819EDE8D818F3FFE
S1131A3011F061E099DE61E08E8196DE7E0187E03F
S1131A40E80EF11C00E010E08F8584FD03C084E003
S1131A5090E002C088E090E00817190744F461E0C0
S1131A60F70181917F0180DE0F5F1F4FEDCF80E58D
S1131A7093EC90DD60E08C81B3DE60E08E81B0DEBB
S1131A808D818F3F11F060E0ABDE6F8564FD16C081
S1131A9063E0CE0112DF84E991E17CDD63E0CE01F5
S1131AA00CDF84E991E176DD63E0CE0106DF86E9AF
S1131AB090E070DD62E0CE0100DF11C06062CE0113
S1131AC076DF84E991E166DD6F856062CE016FDFC8
S1131AD086E990E05FDD6F856062CE0168DF6F8527
S1131AE06062CE0164DF84E0888BCE0179DFCE01B1
S1131AF060DF82E0898B66E0CE01DF91CF911F9198
S1131B000F91FF90EF9053CFCF92EF920F93FC0180
S1131B101382128289E892E09183808364838FEF39
S1131B208583468327830087E186C28613861486CD
S1131B3015861686178620E041E060E1CF010F91FB
S1131B40EF90CF9054CF41E00EDF81E090E0089514
S1131B501F920F920FB60F9211240BB60F922F9370
S1131B603F934F935F936F937F938F939F93AF9321
S1131B70BF93EF93FF93E0912C03F0912D031995FC
S1131B80FF91EF91BF91AF919F918F917F916F9151
S1131B905F914F913F912F910F900BBE0F900FBE0D
S1131BA00F901F901895A1E21A2EAA1BBB1BFD01D2
S1131BB00DC0AA1FBB1FEE1FFF1FA217B307E40728
S1131BC0F50720F0A21BB30BE40BF50B661F771F80
S1131BD0881F991F1A9469F7609570958095909560
S1131BE09B01AC01BD01CF010895EE0FFF1F881FBB
S1131BF08BBF0790F691E02D199409D0A59F900D05
S1131C00B49F900DA49F800D911D11240895A29F4F
S1131C10B001B39FC001A39F700D811D1124911DBC
S1131C20B29F700D811D1124911D08950F931F9370
S1131C30CF93DF93CDB7DEB72E970FB6F894DEBF00
S1131C400FBECDBF0E891F8986E08C831A8309835A
S1131C508FEF9FE79E838D83AE01465E5F4F688D55
S1131C60798DCE01019610D0EF81F885E00FF11F38
S1131C7010822E960FB6F894DEBF0FBECDBFDF9153
S1131C80CF911F910F9108952F923F924F925F929F
S1131C906F927F928F929F92AF92BF92CF92DF9278
S1131CA0EF92FF920F931F93CF93DF93CDB7DEB7DD
S1131CB02B970FB6F894DEBF0FBECDBF6C017B012E
S1131CC08A01FC0117821682838181FFBFC1CE0184
S1131CD001963C01F6019381F70193FD859193FFF1
S1131CE081917F01882309F4ADC1853239F493FDD4
S1131CF0859193FF81917F01853221F4B60190E0B3
S1131D00D6D1E8CF912C212C312CFFE1F315D8F05A
S1131D108B3279F038F4803279F08332A1F4232DB8
S1131D2020611DC08D3261F0803369F4232D216060
S1131D3016C0832D8260382EE32DE4603E2E2AC027
S1131D40F32DF8601DC037FC2DC020ED280F2A307C
S1131D5040F08E32B9F436FC75C1232D2064322E46
S1131D6019C036FE06C08AE0989E200D1124922EDA
S1131D7011C0EAE02E9E200D1124222EF32DF062D4
S1131D803F2E08C08C3621F4832D8068382E02C083
S1131D90883641F4F70193FD859193FF81917F018A
S1131DA08111B3CF982F9F7D9554933028F40C5F05
S1131DB01F4F9FE399830DC0833631F0833771F051
S1131DC0833509F055C020C0F801808189830E5FF6
S1131DD01F4F88248394912C530112C02801F2E0F0
S1131DE04F0E511CF801A080B18036FE03C0692D4E
S1131DF070E002C06FEF7FEFC5014ED14C0182014C
S1131E00F32DFF773F2E15C0280122E0420E511C0E
S1131E10F801A080B18036FE03C0692D70E002C0D5
S1131E206FEF7FEFC5012DD14C01F32DF0683F2EEC
S1131E30820133FC19C0822D90E088169906A0F423
S1131E40B60180E290E033D12A94F5CFF50137FC56
S1131E50859137FE81915F01B60190E028D1211070
S1131E602A9421E0821A91088114910479F7E1C03F
S1131E70843611F0893639F5F80137FE07C06081E0
S1131E807181828193810C5F1F4F08C060817181D1
S1131E90072E000C880B990B0E5F1F4FF32DFF7656
S1131EA03F2E97FF09C090958095709561957F4F5F
S1131EB08F4F9F4FF0683F2E2AE030E0A30133D1CB
S1131EC0882E861844C0853731F4232D2F7EB22EF8
S1131ED02AE030E025C0932D997FB92E8F36C1F0CA
S1131EE018F4883579F0AEC0803719F0883721F0BE
S1131EF0A9C0E92FE061BE2EB4FE0DC0FB2DF46035
S1131F00BF2E09C034FE0AC0292F2660B22E06C097
S1131F1028E030E005C020E130E002C020E132E0FA
S1131F20F801B7FE07C060817181828193810C5FE3
S1131F301F4F06C06081718180E090E00E5F1F4FEB
S1131F40A301F1D0882E8618FB2DFF773F2E36FE95
S1131F500DC0232D2E7FA22E891458F434FE0BC0FD
S1131F6032FC09C0832D8E7EA82E05C0B82CA32C6C
S1131F7003C0B82C01C0B92CA4FE0FC0FE01E80DAB
S1131F80F11D8081803321F49A2D997EA92E09C0F8
S1131F90A2FE06C0B394B39404C08A2D867809F0D7
S1131FA0B394A3FC10C0A0FE06C0B21480F4280CA5
S1131FB0922C9B180DC0B21458F4B60180E290E044
S1131FC076D0B394F8CFB21418F42B1802C0982C1E
S1131FD0212CA4FE0FC0B60180E390E068D0A2FEDD
S1131FE016C0A1FC03C088E790E002C088E590E039
S1131FF0B6010CC08A2D867851F0A1FE02C08BE296
S113200001C080E2A7FC8DE2B60190E050D08914B3
S113201030F4B60180E390E04AD09A94F8CF8A94E1
S1132020F301E80DF11D8081B60190E040D08110EC
S1132030F6CF222009F44ECEB60180E290E037D0EC
S11320402A94F7CFF6018681978102C08FEF9FEF24
S11320502B960FB6F894DEBF0FBECDBFDF91CF91A4
S11320601F910F91FF90EF90DF90CF90BF90AF90B2
S11320709F908F907F906F905F904F903F902F90A4
S11320800895FC010590615070400110D8F78095C7
S113209090958E0F9F1F0895FC0161507040019030
S11320A00110D8F7809590958E0F9F1F08950F9378
S11320B01F93CF93DF93FB01238121FD03C08FEF97
S11320C09FEF2CC022FF16C04681578124813581A1
S11320D04217530744F4A081B1819D012F5F3F4F04
S11320E0318320838C93268137812F5F3F4F378341
S11320F0268314C08B01EC01FB010084F185E02DE3
S11321001995892BE1F6D80116968D919C91179714
S1132110019617969C938E931697CE01DF91CF91DB
S11321201F910F910895FA01AA27283051F1203107
S113213081F1E8946F936E7F6E5F7F4F8F4F9F4F57
S1132140AF4FB1E03ED0B4E03CD0670F781F891F99
S11321509A1FA11D680F791F8A1F911DA11D6A0F67
S1132160711D811D911DA11D20D009F468943F911A
S11321702AE0269F11243019305D3193DEF6CF0119
S11321800895462F4770405D4193B3E00FD0C9F7DF
S1132190F6CF462F4F70405D4A3318F0495D31FD4C
S11321A04052419302D0A9F7EACFB4E0A69597959F
S11321B0879577956795BA95C9F700976105710575
S11321C008959B01AC010A2E0694579547953795BF
S11321D02795BA95C9F7620F731F841F951FA01D19
S11321E00895DC01CB01FC01F999FECF06C0F2BDD4
S11321F0E1BDF89A319600B40D9241505040B8F7C1
S11322000895DC01CB0102C02D9105D0415050400E
S1132210D8F70895262FF999FECF1FBA92BD81BD34
S113222020BD0FB6F894FA9AF99A0FBE0196089554
S1072230F894FFCF4C
S113223418003800370036006400020001014361CD
S11322446C6962726174696E6700253034640025B8
S113225430336400523A00204253540020464C5414
S113226400453A004D41494E53204641494C002013
S11322745231523220204C560020523152322055D1
S1132284563100205231202020555632002020207F
S1132294202020204F560041565220484947483AAE
S11322A400415652204C4F573A0042415420434176
S11122B44C49423A0000000000A30D400A000D
S9030000FC
